:10000000E6C0000000C10000FEC00000FCC000000F
:10001000FAC00000F8C00000F6C00000F4C0000004
:10002000F2C00000F0C00000EEC0000049C60000B1
:10003000EEC60000E8C00000E6C00000E4C000001A
:10004000E2C00000E0C00000DEC00000DCC0000034
:10005000DAC00000D8C00000D6C0000081C3000094
:10006000D2C00000D0C00000CEC00000CCC0000054
:10007000CAC0000065078707400887074008CC070B
:10008000E907400808081A081201100100000008DA
:1000900041235EB200000102000114035000690018
:1000A00061006E006F002000520054004D000000FF
:1000B00012011001020000084123010001000102A9
:1000C00000012403410072006400750069006E00A5
:1000D0006F0020004D0065006700610020003200C5
:1000E00035003600300000000803520054004D0077
:1000F00000003203410072006400750069006E0068
:100100006F00200028007700770077002E00610044
:1001100072006400750069006E006F002E006300BD
:1001200063002900000004030904090265000201BC
:1001300000C0320904000000010100000924010090
:100140000109000101090401000201030000072464
:1001500001000141000624020101000624020202FE
:100160000009240301030102010009240302040120
:100170000101000905010240000000000525010100
:100180000109058202400000000005250101030964
:10019000023E00020100C032090400000102020117
:1001A00000052400011004240206052406000107AE
:1001B0000582030800FF09040100020A000000078D
:1001C00005040240000107058302400001001124DC
:1001D0001FBECFEFD2E0DEBFCDBF11E0A0E0B1E0A7
:1001E000ECE9F4E102C005900D92A233B107D9F712
:1001F00022E0A2E3B1E001C01D92A23BB207E1F709
:1002000034D20C944C0AFCCEFC01E058FF4FA08184
:10021000B1816C93A081B1819D012F5F3F4F3183EC
:1002200020832E173F0721F412969C938E931197EB
:100230002FB7F894FC01EC57FF4F80818F5F8083CC
:100240002FBF0895DC01AE57BF4FED91FC91119780
:1002500021911196FC93EE93AC0140585F4FE41747
:10026000F50711F48D939C933FB7F894FC01EC577C
:10027000FF4F9081915090833FBF822F0895CF937D
:10028000DF9320917701FC01860F4081342F3F706E
:10029000323030F4982F9E1B953008F13496F5CF0C
:1002A000EF01219691E04B7054EF530F6991A22F0B
:1002B000B0E0AA5CBE4F6C932F5F2F73913029F48E
:1002C000353041F33F3039F4E5CF923021F44230FC
:1002D00009F35230F8F29F5F943041F7DBCF20935F
:1002E0007701DF91CF910895982F80913501882370
:1002F00019F1E091340181E08E0F80933401973F32
:1003000069F4AE2FB0E0A858BE4F9C93EC5FE09329
:10031000780110923501109233015FC0F0E0E85887
:10032000FE4F9083843011F080E00895809378012F
:1003300081E0809334010895983F50F08FE08093DE
:1003400078019093790110927A0110927B0145C057
:1003500097FF0DC0903F49F421E020933501909321
:10036000790192E0909334010895109233018091C5
:100370003301811110C0392F32953F70232F277020
:10038000220F2E5F209333013093880190938901CF
:1003900010928B010895E82FF0E0EF5DFE4F408151
:1003A000282F217030E0F901E857FE4F9283842F07
:1003B0008F708093330147FFB7CF80918801909170
:1003C0008901A0918A01B0918B018093780190936B
:1003D0007901A0937A01B0937B0181E00895CF93D6
:1003E000DF9300D000D0CDB7DEB7789413E088E279
:1003F000F82E02E08091C80087FF0BC08091CE00EC
:1004000073DF90919801892B809398015D981093E8
:10041000990180919801882351F068E771E081E0AB
:1004200091E0BED781E091E0DED710929801BE0145
:100430006F5F7F4F81E091E0E9D7882341F064E06E
:10044000CE0101961CDF5C9810939A01F0CF809149
:10045000C80085FF15C0E0917601809177018E1765
:1004600079F081E08E0F80937601F0E0EA5CFE4F38
:1004700080818093CE00809176018F738093760186
:10048000A89B19C0A89A80919901882341F0809176
:100490009901815080939901811101C05D9A8091E9
:1004A0009A01882341F080919A01815080939A01AA
:1004B000811101C05C9AEDD580913201813009F043
:1004C00099CF80910001815019F08093000192CF63
:1004D000F092000185B1802785B98CCF2FB7F894B1
:1004E00081E292E09093A2028093A1029093A402F1
:1004F0008093A3022FBF2FB7F8948CE991E09093DB
:100500001D0280931C0290931F0280931E022FBF36
:100510007894D3E09FB7F8948091A5029FBF80386C
:1005200049F08AE091E0DAD697FD04C0682F81E2B5
:1005300092E06ADE8FB7F894C09120028FBFA8992D
:1005400002C0C13658F1A89A80912002882319F080
:100550005D98D0939901CC2349F08CE991E072DE4B
:10056000682F8AE091E05BD6C150F5CF8091990168
:10057000882341F0809199018150809399018111E4
:1005800001C05D9A80919A01882341F080919A017F
:10059000815080939A01811101C05C9A9FB7F894B1
:1005A0008091A5029FBF882361F081E292E04ADE3C
:1005B0009091C80095FFFCCF8093CE005C98D093BB
:1005C0009A018AE091E07CD664D5A4CF84B7877F76
:1005D00084BF0FB6F894A8958091600088618093DD
:1005E0006000109260000FBE82E084B98CE085B993
:1005F0008AB180638AB98BB180638BB984E690E05D
:100600005C985C9A0197E1F71A9913C01092200147
:1006100087E690E09093CD008093CC0086E08093B5
:10062000CA001092C80088E18093C900539A5A9A70
:1006300012C081E0809320011B9905C08093320194
:100640001092CC0003C08FE18093CC0088E18093AE
:10065000C9008EE085B984E085BD27D38091200153
:10066000811102C05F9A579A0895B0DF80912001EE
:10067000813009F4B4DE32DF0895089580912001BD
:10068000813019F481E091E054C68AE091E07DC5A3
:1006900080912001811103C08AE091E00CC508958A
:1006A0000F931F93CF938C01FC018489813021F03B
:1006B000823021F4C0E203C0C0E301C0C0E0F80111
:1006C0008389823009F4C860F8018589873031F068
:1006D000883031F0863029F4C26003C0C46001C0A4
:1006E000C6601092C9001092C8001092CA00F801AA
:1006F00027853089418952892115F1EE3F0741054F
:10070000510581F0DA01C901B695A79597958795AE
:10071000BC01CD0160587B47814E9F4F95D621503B
:10072000310902C020E130E03093CD002093CC00AD
:10073000C093CA00F80187859089A189B289811583
:10074000914EA105B10511F082E001C080E08093D7
:10075000C80088E98093C900CF911F910F91089537
:100760001F920F920FB60F9211242F933F934F9326
:100770005F936F937F938F939F93AF93BF93EF9309
:10078000FF9380912001811108C06091CE008EB34B
:10079000843019F48CE991E037DDFF91EF91BF913E
:1007A000AF919F918F917F916F915F914F913F9109
:1007B0002F910F900FBE0F901F901895FC0185850B
:1007C00080FF02C05F9808955F9A0895292F33270C
:1007D0002230310589F023303105C1F02130310557
:1007E00009F058C080912001813009F449C082E1AC
:1007F00090E020EB30E052C080912001813009F47C
:1008000044C08EE390E02FE831E048C09927813062
:10081000910571F082309105F9F0892B09F03AC009
:10082000E6E2F1E0E4918E2F90E026E231E036C07E
:1008300080912001813041F4E8EEF0E0E4918E2FC8
:1008400090E028EE30E02AC0E2EFF0E0E4918E2F55
:1008500090E022EF30E022C080912001813041F40D
:10086000EAE9F0E0E4918E2F90E02AE930E016C04A
:10087000E2ECF0E0E4918E2F90E022EC30E00EC04C
:1008800082E190E028E830E009C085E690E02AE2C5
:1008900031E004C080E090E020E030E0FA013183F4
:1008A00020830895AC0128E030E080E0241735076C
:1008B00020F48F5F220F331FF9CF8295807F089538
:1008C0008093E900EBEEF0E0808181608083EDEEC3
:1008D000F0E010826093EC0040838091EE00881F6E
:1008E0008827881F08951092F40080E08093E90023
:1008F0001092F0001092E8001092ED009091EB0041
:100900009E7F9093EB008F5F853081F708958091F3
:10091000AA0287FF0FC08091E80082FD04C08EB359
:100920008111F9CF10C08091E8008B770AC08EB397
:10093000882349F08091E80080FFF9CF8091E8009A
:100940008E778093E800089585E69091EC0090FF03
:1009500005C09091E80090FF05C01BC09091E80091
:1009600092FD17C09EB39923B1F09EB39530A9F0C4
:100970009091EB0095FD13C09091E10092FFE5CFBF
:100980009091E1009B7F9093E1008150F1F684E02B
:10099000089580E0089582E0089583E0089581E05D
:1009A0000895EF92FF920F931F93CF93DF938C01E3
:1009B000EB017A01C9DF81111DC02097D1F0809130
:1009C000E80085FD0EC08091E8008E778093E800F6
:1009D000E114F10479F3F7010995813059F785E0C5
:1009E00009C0F80180818093F10021970F5F1F4FAC
:1009F000E4CF80E0DF91CF911F910F91FF90EF90B6
:100A00000895EF92FF920F931F93CF93DF938C0182
:100A1000EB017A0199DF81111DC02097D1F08091FF
:100A2000E80085FD0EC08091E8008B778093E80098
:100A3000E114F10479F3F7010995813059F785E064
:100A400009C08091F100F801808321970F5F1F4F4B
:100A5000E4CF80E0DF91CF911F910F91FF90EF9055
:100A600008952091B0023091B1022617370748F05F
:100A70006115710539F42091E8002E772093E80084
:100A800001C0B90130E06115710561F12091E80004
:100A900023FD37C02091E80022FD2DC02EB3222374
:100AA00091F12EB3253089F12091E80020FFEBCFA2
:100AB0002091F200FC01CF016115710549F0283049
:100AC00038F481918093F100615071092F5FF3CF69
:100AD00031E0283009F030E02091E8002E772093B3
:100AE000E800D1CF3111D2CF06C08EB3882359F0A0
:100AF0008EB3853051F08091E80082FFF6CF80E020
:100B0000089581E0089582E0089583E0089520919A
:100B1000B0023091B1022617370748F06115710510
:100B200039F42091E8002E772093E80001C0B90144
:100B300030E06115710569F12091E80023FD38C0AE
:100B40002091E80022FD2EC02EB3222399F12EB36E
:100B5000253091F12091E80020FFEBCF2091F200A9
:100B6000FC01CF016115710551F0283040F48491EA
:100B70008093F100615071092F5F3196F2CF31E01F
:100B8000283009F030E02091E8002E772093E8002B
:100B9000D0CF3111D1CF06C08EB3882359F08EB398
:100BA000853051F08091E80082FFF6CF80E0089513
:100BB00081E0089582E0089583E00895611571054C
:100BC00029F42091E8002B772093E8006115710546
:100BD00011F12091E80023FD24C02EB3222319F146
:100BE0002EB3253011F12091E80022FFEFCF2091A4
:100BF000F200222331F301962091F100FC0131979C
:100C000020836150710999F7DCCF8EB3882359F0A6
:100C10008EB3853051F08091E80080FFF6CF80E000
:100C2000089581E0089582E0089583E0089542D018
:100C300044D01EBA1092A8021092A7021092A602E7
:100C400084E089BD89B5826089BD09B400FEFDCF0D
:100C50008091D800982F9F779093D80080688093D8
:100C6000D800809163008E7F809363008091D800CC
:100C70008F7D8093D8008091E0008E7F8093E0008C
:100C80008091E1008E7F8093E1008091E20081609D
:100C90008093E2008091E100877F8093E100809162
:100CA000E20088608093E2000895C1DF81E08093D4
:100CB000A90208951092E20008951092E1000895AB
:100CC0001F920F920FB60F9211242F933F934F93C1
:100CD0005F936F937F938F939F93AF93BF93EF93A4
:100CE000FF938091E10080FF1BC08091E20080FFB4
:100CF00017C08091E1008E7F8093E1008091E20037
:100D00008E7F8093E2008091E20080618093E20018
:100D10008091D80080628093D80019BC1EBAADDCE7
:100D20008091E10084FF29C08091E20084FF25C00A
:100D300084E089BD89B5826089BD09B400FEFDCF1C
:100D40008091D8008F7D8093D8008091E1008F7EC4
:100D50008093E1008091E2008F7E8093E200809199
:100D6000E20081608093E2008091A802811102C0BC
:100D700081E001C084E08EBB7FDC8091E10083FFD5
:100D800027C08091E20083FF23C08091E100877F2C
:100D90008093E10082E08EBB1092A8028091E10076
:100DA0008E7F8093E1008091E2008E7F8093E2004D
:100DB0008091E20080618093E20095DD42E060E096
:100DC00080E07EDD8091F00088608093F00060D14B
:100DD0008091E10082FF0AC08091E20082FF06C09C
:100DE0008091E1008B7F8093E10052D1FF91EF91E0
:100DF000BF91AF919F918F917F916F915F914F9133
:100E00003F912F910F900FBE0F901F9018951F923A
:100E10000F920FB60F921124FF920F931F932F93EF
:100E20003F934F935F936F937F938F939F93AF9372
:100E3000BF93CF93DF93EF93FF93C9EED0E0888108
:100E40008770F82E188200EF10E0F8018081877F0C
:100E5000808378941DD0F8941882F801808188608E
:100E60008083F882FF91EF91DF91CF91BF91AF9195
:100E70009F918F917F916F915F914F913F912F91B2
:100E80001F910F91FF900F900FBE0F901F9018951C
:100E90001F93CF93DF9300D0CDB7DEB7EAEAF2E03D
:100EA00088E08E0F9091F10091938E13FBCF80918B
:100EB000AA029091AB02492F50E04A30510508F048
:100EC000DFC0FA01E65CFF4FE1C2803881F0823872
:100ED00009F0D6C08091AE0287708093E9008091BE
:100EE000EB0085FB882780F91092E90006C080910D
:100EF000A6029091A702911182609091E800977FDD
:100F00009093E8008093F1001092F1008CC0282F9C
:100F10002D7F09F0B5C0882319F0823061F0A1C09F
:100F20008091AC02813009F09CC0933009F080E0E0
:100F30008093A7022BC08091AC02811127C08091C1
:100F4000AE02877009F48DC08093E9002091EB0018
:100F500020FF87C0933021F48091EB00806214C0A1
:100F60009091EB0090619093EB0021E030E0A901BB
:100F700002C0440F551F8A95E2F74093EA00109291
:100F8000EA008091EB0088608093EB001092E9000A
:100F90008091E800877F4AC0811172C01091AC0235
:100FA0008091E800877F8093E800B1DC8091E800C1
:100FB00080FD04C08EB38111F9CF53C0812F8F778C
:100FC00011F492E001C093E09EBB80688093E3003F
:100FD00048C08058823008F053C0AE014F5F5F4F69
:100FE0006091AE028091AC029091AD02EFDBBC014A
:100FF000892BB9F19091E800977F9093E80089815F
:101000009A8185DD8091E8008B778093E80029C084
:101010008038B1F58091E800877F8093E800809167
:10102000A8028093F1008091E8008E778093E80019
:101030006EDC17C0811124C09091AC02923088F40C
:101040008091E800877F8093E8009093A8025FDC9E
:101050008091A802811102C083E001C084E08EBBB0
:101060000DDB8091E80083FF0DC08091EB00806272
:101070008093EB008091E800877F8093E80002C0B6
:1010800007DBEFCF0F900F90DF91CF911F91089565
:101090000895CF938EB3882359F0C091E900C770AB
:1010A0001092E9008091E80083FDF2DEC093E90030
:1010B000CF9108950895CF93DF932091E80023FF07
:1010C00061C0FC01208130E04091AE025091AF023E
:1010D0004217530709F056C0EC018091AB028132F0
:1010E00049F018F48032C9F04DC0823261F1833288
:1010F000C9F148C08091AA02813A09F043C08091A9
:10110000E800877F8093E80067E070E0CF010F96EA
:10111000A8DC8091E8008B7713C08091AA0281320D
:1011200089F58091E800877F8093E80067E070E0B0
:10113000CF010F9643DDCE01B3DA8091E8008E77C0
:101140008093E8001FC08091AA028132D9F4809177
:10115000E800877F8093E8008091AC028587CF010B
:101160002DDB0DC08091AA02813261F48091E800EC
:10117000877F8093E8006091AC02CF019BDFDF9115
:10118000CF91C5CBDF91CF9108950F931F93CF934C
:10119000DF93EC01FC013D9689E0DF011D928A9509
:1011A000E9F78A819B812C81211102C010E001C0E6
:1011B00014E0098177DB812B482F426061E8802FA2
:1011C0007FDB882331F18E819F812885211102C028
:1011D00010E001C014E00D8165DB812B482F4260D7
:1011E00060E8802F6DDB8823A1F08A859B852C85A4
:1011F000211102C010E001C014E0C98553DB812B2E
:10120000482F426061EC8C2FDF91CF911F910F919D
:1012100057CB80E0DF91CF911F910F9108950F93ED
:101220001F93CF932EB32430F1F4FC01078510896E
:1012300021893289012B022B032BA9F0C62F818132
:101240008093E9008091E80085FF04C0C093F1001D
:1012500080E00AC08091E8008E778093E80074DB1C
:101260008823A1F301C082E0CF911F910F910895CF
:101270002EB3243019F5FC014785508961897289A4
:10128000452B462B472BD1F081818093E90080913B
:10129000F200882389F09091E8008091E8008E7731
:1012A0008093E80095FD08C04FDB811108C0809154
:1012B000E8008E778093E80080E0089582E008954A
:1012C0002EB3243051F4FC0147855089618972891D
:1012D000452B462B472B09F0CBCF08952EB3243056
:1012E00019F08FEF9FEF0895FC01478550896189C0
:1012F0007289452B462B472BA1F385818093E9000A
:101300008091E80082FFEDCF8091F200882321F0E8
:101310002091F10030E002C02FEF3FEF8091F2000A
:10132000811105C08091E8008B778093E800C901A6
:1013300008950F931F93CF93DF93EC01098101115F
:1013400005C01D81111114C081E025C08A819B81D7
:101350002C81211102C010E001C014E0A3DA812B1E
:10136000482F426061E8802FABDA8111EACF13C0C9
:101370008E819F812885211102C0C0E001C0C4E098
:1013800091DA8C2B482F426060E8812FDF91CF915A
:101390001F910F9195CADF91CF911F910F910895E1
:1013A0002EB32430F1F4FC0181818093E900809117
:1013B000E80085FD02C080E00895CB0140E050E0E8
:1013C00064E070E0EEDA81110DC09091E800892FA1
:1013D000807295FDF0CF9091E8009E779093E800A1
:1013E000089582E008952EB3243071F4FC018181C8
:1013F0008093E9008091F200882339F08091E80021
:101400008E778093E800A0CA82E008952EB324303E
:1014100011F080E00895FC0185818093E9008091BE
:10142000E80085FFF6CFCB0140E050E064E070E0DB
:10143000E8DA8091E80085FD05C08091E8008B77AF
:101440008093E80081E00895A1E21A2EAA1BBB1B3D
:10145000FD010DC0AA1FBB1FEE1FFF1FA217B30780
:10146000E407F50720F0A21BB30BE40BF50B661F96
:10147000771F881F991F1A9469F76095709580955A
:1014800090959B01AC01BD01CF010895EE0FFF1FA8
:0C1490000590F491E02D0994F894FFCF32
:10149C00280102400000014000000003400000044D
:1014AC0040000002080000000000000000000000E6
:1014BC0001000003820584078609888A008C000FCE
:0214CC008E0090
:00000001FF
